{"abi":[{"type":"function","name":"addProof","inputs":[{"name":"postId","type":"uint256","internalType":"uint256"},{"name":"cid","type":"string","internalType":"string"}],"outputs":[],"stateMutability":"payable"},{"type":"function","name":"createPost","inputs":[{"name":"content","type":"string","internalType":"string"},{"name":"cid","type":"string","internalType":"string"}],"outputs":[],"stateMutability":"payable"},{"type":"function","name":"getNextPostId","inputs":[],"outputs":[{"name":"","type":"uint256","internalType":"uint256"}],"stateMutability":"view"},{"type":"function","name":"getPost","inputs":[{"name":"postId","type":"uint256","internalType":"uint256"}],"outputs":[{"name":"","type":"tuple","internalType":"struct Whistleblower.Post","components":[{"name":"id","type":"uint256","internalType":"uint256"},{"name":"author","type":"address","internalType":"address"},{"name":"content","type":"string","internalType":"string"},{"name":"timestamp","type":"uint256","internalType":"uint256"}]}],"stateMutability":"view"},{"type":"function","name":"nextPostId","inputs":[],"outputs":[{"name":"","type":"uint256","internalType":"uint256"}],"stateMutability":"view"},{"type":"function","name":"nextProofId","inputs":[{"name":"","type":"uint256","internalType":"uint256"}],"outputs":[{"name":"","type":"uint256","internalType":"uint256"}],"stateMutability":"view"},{"type":"function","name":"posts","inputs":[{"name":"","type":"uint256","internalType":"uint256"}],"outputs":[{"name":"id","type":"uint256","internalType":"uint256"},{"name":"author","type":"address","internalType":"address"},{"name":"content","type":"string","internalType":"string"},{"name":"timestamp","type":"uint256","internalType":"uint256"}],"stateMutability":"view"},{"type":"function","name":"proofs","inputs":[{"name":"","type":"uint256","internalType":"uint256"},{"name":"","type":"uint256","internalType":"uint256"}],"outputs":[{"name":"author","type":"address","internalType":"address"},{"name":"cid","type":"string","internalType":"string"},{"name":"timestamp","type":"uint256","internalType":"uint256"}],"stateMutability":"view"},{"type":"event","name":"PostCreated","inputs":[{"name":"id","type":"uint256","indexed":false,"internalType":"uint256"},{"name":"author","type":"address","indexed":false,"internalType":"address"},{"name":"content","type":"string","indexed":false,"internalType":"string"},{"name":"timestamp","type":"uint256","indexed":false,"internalType":"uint256"}],"anonymous":false},{"type":"event","name":"ProofAdded","inputs":[{"name":"postId","type":"uint256","indexed":false,"internalType":"uint256"},{"name":"author","type":"address","indexed":false,"internalType":"address"},{"name":"cid","type":"string","indexed":false,"internalType":"string"},{"name":"timestamp","type":"uint256","indexed":false,"internalType":"uint256"}],"anonymous":false}],"bytecode":{"object":"0x6080604052348015600f57600080fd5b50610a828061001f6000396000f3fe60806040526004361061007b5760003560e01c80635ef779491161004e5780635ef779491461011f578063c78b150f1461014e578063f93834891461017b578063f9f3d0d91461019057600080fd5b80630b1e7f8314610080578063392338f5146100b957806340731c24146100ce5780635c09bd98146100fb575b600080fd5b34801561008c57600080fd5b506100a061009b366004610660565b6101a3565b6040516100b094939291906106bf565b60405180910390f35b6100cc6100c736600461079f565b61025e565b005b3480156100da57600080fd5b506100ee6100e9366004610660565b61033d565b6040516100b09190610808565b34801561010757600080fd5b5061011160025481565b6040519081526020016100b0565b34801561012b57600080fd5b5061013f61013a366004610856565b610494565b6040516100b093929190610878565b34801561015a57600080fd5b50610111610169366004610660565b60036020526000908152604090205481565b34801561018757600080fd5b50600254610111565b6100cc61019e3660046108ac565b610552565b60006020819052908152604090208054600182015460028301805492936001600160a01b03909216926101d5906108dd565b80601f0160208091040260200160405190810160405280929190818152602001828054610201906108dd565b801561024e5780601f106102235761010080835404028352916020019161024e565b820191906000526020600020905b81548152906001019060200180831161023157829003601f168201915b5050505050908060030154905084565b6040805160808101825260028054808352336020808501918252848601888152426060870152600093845290839052949091208351815590516001820180546001600160a01b0319166001600160a01b039092169190911790559251919291908201906102cb9082610966565b50606082015181600301559050507f285db98a4632176385795ddf0d2b67cef1a21f47eb2f5d06f786ab6b5147e20060025433844260405161031094939291906106bf565b60405180910390a161032460025482610552565b6002805490600061033483610a25565b91905055505050565b61037160405180608001604052806000815260200160006001600160a01b0316815260200160608152602001600081525090565b60025482106103b95760405162461bcd60e51b815260206004820152600f60248201526e125b9d985b1a59081c1bdcdd081251608a1b60448201526064015b60405180910390fd5b6000828152602081815260409182902082516080810184528154815260018201546001600160a01b0316928101929092526002810180549293919291840191610401906108dd565b80601f016020809104026020016040519081016040528092919081815260200182805461042d906108dd565b801561047a5780601f1061044f5761010080835404028352916020019161047a565b820191906000526020600020905b81548152906001019060200180831161045d57829003601f168201915b505050505081526020016003820154815250509050919050565b60016020818152600093845260408085209091529183529120805491810180546001600160a01b03909316926104c9906108dd565b80601f01602080910402602001604051908101604052809291908181526020018280546104f5906108dd565b80156105425780601f1061051757610100808354040283529160200191610542565b820191906000526020600020905b81548152906001019060200180831161052557829003601f168201915b5050505050908060020154905083565b6002548211156105965760405162461bcd60e51b815260206004820152600f60248201526e125b9d985b1a59081c1bdcdd081251608a1b60448201526064016103b0565b6040805160608101825233815260208082018481524283850152600086815260018084528582206003855286832054835290935293909320825181546001600160a01b0319166001600160a01b039091161781559251919291908201906105fd9082610966565b50604091820151600290910155517f4f5d31f2a865cdefe18214254a5e3d968b356c88a4c5470dbba0a3829019e56f9061063e9084903390859042906106bf565b60405180910390a1600082815260036020526040812080549161033483610a25565b60006020828403121561067257600080fd5b5035919050565b6000815180845260005b8181101561069f57602081850181015186830182015201610683565b506000602082860101526020601f19601f83011685010191505092915050565b8481526001600160a01b03841660208201526080604082018190526000906106e990830185610679565b905082606083015295945050505050565b634e487b7160e01b600052604160045260246000fd5b600082601f83011261072157600080fd5b813567ffffffffffffffff81111561073b5761073b6106fa565b604051601f8201601f19908116603f0116810167ffffffffffffffff8111828210171561076a5761076a6106fa565b60405281815283820160200185101561078257600080fd5b816020850160208301376000918101602001919091529392505050565b600080604083850312156107b257600080fd5b823567ffffffffffffffff8111156107c957600080fd5b6107d585828601610710565b925050602083013567ffffffffffffffff8111156107f257600080fd5b6107fe85828601610710565b9150509250929050565b602081528151602082015260018060a01b036020830151166040820152600060408301516080606084015261084060a0840182610679565b9050606084015160808401528091505092915050565b6000806040838503121561086957600080fd5b50508035926020909101359150565b6001600160a01b038416815260606020820181905260009061089c90830185610679565b9050826040830152949350505050565b600080604083850312156108bf57600080fd5b82359150602083013567ffffffffffffffff8111156107f257600080fd5b600181811c908216806108f157607f821691505b60208210810361091157634e487b7160e01b600052602260045260246000fd5b50919050565b601f82111561096157806000526020600020601f840160051c8101602085101561093e5750805b601f840160051c820191505b8181101561095e576000815560010161094a565b50505b505050565b815167ffffffffffffffff811115610980576109806106fa565b6109948161098e84546108dd565b84610917565b6020601f8211600181146109c857600083156109b05750848201515b600019600385901b1c1916600184901b17845561095e565b600084815260208120601f198516915b828110156109f857878501518255602094850194600190920191016109d8565b5084821015610a165786840151600019600387901b60f8161c191681555b50505050600190811b01905550565b600060018201610a4557634e487b7160e01b600052601160045260246000fd5b506001019056fea2646970667358221220d9480aabfa025b28aeee80e1121ac6d314281b0277a854639dc6e6ca1edd73bc64736f6c634300081a0033","linkReferences":{}},"methodIdentifiers":{"addProof(uint256,string)":"f9f3d0d9","createPost(string,string)":"392338f5","getNextPostId()":"f9383489","getPost(uint256)":"40731c24","nextPostId()":"5c09bd98","nextProofId(uint256)":"c78b150f","posts(uint256)":"0b1e7f83","proofs(uint256,uint256)":"5ef77949"},"id":0}