{"abi":[{"type":"function","name":"addProof","inputs":[{"name":"postId","type":"uint256","internalType":"uint256"},{"name":"cid","type":"string","internalType":"string"}],"outputs":[],"stateMutability":"payable"},{"type":"function","name":"createPost","inputs":[{"name":"content","type":"string","internalType":"string"},{"name":"cid","type":"string","internalType":"string"}],"outputs":[],"stateMutability":"payable"},{"type":"function","name":"getPost","inputs":[{"name":"postId","type":"uint256","internalType":"uint256"}],"outputs":[{"name":"","type":"tuple","internalType":"struct Whistleblower.Post","components":[{"name":"id","type":"uint256","internalType":"uint256"},{"name":"author","type":"address","internalType":"address"},{"name":"content","type":"string","internalType":"string"},{"name":"timestamp","type":"uint256","internalType":"uint256"}]}],"stateMutability":"view"},{"type":"function","name":"nextPostId","inputs":[],"outputs":[{"name":"","type":"uint256","internalType":"uint256"}],"stateMutability":"view"},{"type":"function","name":"nextProofId","inputs":[{"name":"","type":"uint256","internalType":"uint256"}],"outputs":[{"name":"","type":"uint256","internalType":"uint256"}],"stateMutability":"view"},{"type":"function","name":"posts","inputs":[{"name":"","type":"uint256","internalType":"uint256"}],"outputs":[{"name":"id","type":"uint256","internalType":"uint256"},{"name":"author","type":"address","internalType":"address"},{"name":"content","type":"string","internalType":"string"},{"name":"timestamp","type":"uint256","internalType":"uint256"}],"stateMutability":"view"},{"type":"function","name":"proofs","inputs":[{"name":"","type":"uint256","internalType":"uint256"},{"name":"","type":"uint256","internalType":"uint256"}],"outputs":[{"name":"author","type":"address","internalType":"address"},{"name":"cid","type":"string","internalType":"string"},{"name":"timestamp","type":"uint256","internalType":"uint256"}],"stateMutability":"view"},{"type":"event","name":"PostCreated","inputs":[{"name":"id","type":"uint256","indexed":false,"internalType":"uint256"},{"name":"author","type":"address","indexed":false,"internalType":"address"},{"name":"content","type":"string","indexed":false,"internalType":"string"},{"name":"timestamp","type":"uint256","indexed":false,"internalType":"uint256"}],"anonymous":false},{"type":"event","name":"ProofAdded","inputs":[{"name":"postId","type":"uint256","indexed":false,"internalType":"uint256"},{"name":"author","type":"address","indexed":false,"internalType":"address"},{"name":"cid","type":"string","indexed":false,"internalType":"string"},{"name":"timestamp","type":"uint256","indexed":false,"internalType":"uint256"}],"anonymous":false}],"bytecode":{"object":"0x6080604052348015600f57600080fd5b50610a618061001f6000396000f3fe6080604052600436106100705760003560e01c80635c09bd981161004e5780635c09bd98146100f05780635ef7794914610114578063c78b150f14610143578063f9f3d0d91461017057600080fd5b80630b1e7f8314610075578063392338f5146100ae57806340731c24146100c3575b600080fd5b34801561008157600080fd5b5061009561009036600461063f565b610183565b6040516100a5949392919061069e565b60405180910390f35b6100c16100bc36600461077e565b61023e565b005b3480156100cf57600080fd5b506100e36100de36600461063f565b61031d565b6040516100a591906107e7565b3480156100fc57600080fd5b5061010660025481565b6040519081526020016100a5565b34801561012057600080fd5b5061013461012f366004610835565b610474565b6040516100a593929190610857565b34801561014f57600080fd5b5061010661015e36600461063f565b60036020526000908152604090205481565b6100c161017e36600461088b565b610532565b60006020819052908152604090208054600182015460028301805492936001600160a01b03909216926101b5906108bc565b80601f01602080910402602001604051908101604052809291908181526020018280546101e1906108bc565b801561022e5780601f106102035761010080835404028352916020019161022e565b820191906000526020600020905b81548152906001019060200180831161021157829003601f168201915b5050505050908060030154905084565b6040805160808101825260028054808352336020808501918252848601888152426060870152600093845290839052949091208351815590516001820180546001600160a01b0319166001600160a01b039092169190911790559251919291908201906102ab9082610945565b50606082015181600301559050507f285db98a4632176385795ddf0d2b67cef1a21f47eb2f5d06f786ab6b5147e2006002543384426040516102f0949392919061069e565b60405180910390a161030460025482610532565b6002805490600061031483610a04565b91905055505050565b61035160405180608001604052806000815260200160006001600160a01b0316815260200160608152602001600081525090565b60025482106103995760405162461bcd60e51b815260206004820152600f60248201526e125b9d985b1a59081c1bdcdd081251608a1b60448201526064015b60405180910390fd5b6000828152602081815260409182902082516080810184528154815260018201546001600160a01b03169281019290925260028101805492939192918401916103e1906108bc565b80601f016020809104026020016040519081016040528092919081815260200182805461040d906108bc565b801561045a5780601f1061042f5761010080835404028352916020019161045a565b820191906000526020600020905b81548152906001019060200180831161043d57829003601f168201915b505050505081526020016003820154815250509050919050565b60016020818152600093845260408085209091529183529120805491810180546001600160a01b03909316926104a9906108bc565b80601f01602080910402602001604051908101604052809291908181526020018280546104d5906108bc565b80156105225780601f106104f757610100808354040283529160200191610522565b820191906000526020600020905b81548152906001019060200180831161050557829003601f168201915b5050505050908060020154905083565b60025482106105755760405162461bcd60e51b815260206004820152600f60248201526e125b9d985b1a59081c1bdcdd081251608a1b6044820152606401610390565b6040805160608101825233815260208082018481524283850152600086815260018084528582206003855286832054835290935293909320825181546001600160a01b0319166001600160a01b039091161781559251919291908201906105dc9082610945565b50604091820151600290910155517f4f5d31f2a865cdefe18214254a5e3d968b356c88a4c5470dbba0a3829019e56f9061061d90849033908590429061069e565b60405180910390a1600082815260036020526040812080549161031483610a04565b60006020828403121561065157600080fd5b5035919050565b6000815180845260005b8181101561067e57602081850181015186830182015201610662565b506000602082860101526020601f19601f83011685010191505092915050565b8481526001600160a01b03841660208201526080604082018190526000906106c890830185610658565b905082606083015295945050505050565b634e487b7160e01b600052604160045260246000fd5b600082601f83011261070057600080fd5b813567ffffffffffffffff81111561071a5761071a6106d9565b604051601f8201601f19908116603f0116810167ffffffffffffffff81118282101715610749576107496106d9565b60405281815283820160200185101561076157600080fd5b816020850160208301376000918101602001919091529392505050565b6000806040838503121561079157600080fd5b823567ffffffffffffffff8111156107a857600080fd5b6107b4858286016106ef565b925050602083013567ffffffffffffffff8111156107d157600080fd5b6107dd858286016106ef565b9150509250929050565b602081528151602082015260018060a01b036020830151166040820152600060408301516080606084015261081f60a0840182610658565b9050606084015160808401528091505092915050565b6000806040838503121561084857600080fd5b50508035926020909101359150565b6001600160a01b038416815260606020820181905260009061087b90830185610658565b9050826040830152949350505050565b6000806040838503121561089e57600080fd5b82359150602083013567ffffffffffffffff8111156107d157600080fd5b600181811c908216806108d057607f821691505b6020821081036108f057634e487b7160e01b600052602260045260246000fd5b50919050565b601f82111561094057806000526020600020601f840160051c8101602085101561091d5750805b601f840160051c820191505b8181101561093d5760008155600101610929565b50505b505050565b815167ffffffffffffffff81111561095f5761095f6106d9565b6109738161096d84546108bc565b846108f6565b6020601f8211600181146109a7576000831561098f5750848201515b600019600385901b1c1916600184901b17845561093d565b600084815260208120601f198516915b828110156109d757878501518255602094850194600190920191016109b7565b50848210156109f55786840151600019600387901b60f8161c191681555b50505050600190811b01905550565b600060018201610a2457634e487b7160e01b600052601160045260246000fd5b506001019056fea2646970667358221220ea4d696724deb6f4b733866777a7ff0f8ccf58a0ba7b7293bf8217b87bb7bdfb64736f6c634300081a0033","linkReferences":{}},"methodIdentifiers":{"addProof(uint256,string)":"f9f3d0d9","createPost(string,string)":"392338f5","getPost(uint256)":"40731c24","nextPostId()":"5c09bd98","nextProofId(uint256)":"c78b150f","posts(uint256)":"0b1e7f83","proofs(uint256,uint256)":"5ef77949"},"id":0}