{"abi":[{"type":"constructor","inputs":[{"name":"_worldId","type":"address","internalType":"contract IWorldID"},{"name":"_appId","type":"string","internalType":"string"},{"name":"_actionId","type":"string","internalType":"string"}],"stateMutability":"nonpayable"},{"type":"function","name":"addProof","inputs":[{"name":"postId","type":"uint256","internalType":"uint256"},{"name":"cid","type":"string","internalType":"string"},{"name":"params","type":"tuple","internalType":"struct Whistleblower.VerifyProofParams","components":[{"name":"signal","type":"address","internalType":"address"},{"name":"root","type":"uint256","internalType":"uint256"},{"name":"nullifierHash","type":"uint256","internalType":"uint256"},{"name":"proof","type":"uint256[8]","internalType":"uint256[8]"}]}],"outputs":[],"stateMutability":"payable"},{"type":"function","name":"createPost","inputs":[{"name":"content","type":"string","internalType":"string"},{"name":"cid","type":"string","internalType":"string"},{"name":"params","type":"tuple","internalType":"struct Whistleblower.VerifyProofParams","components":[{"name":"signal","type":"address","internalType":"address"},{"name":"root","type":"uint256","internalType":"uint256"},{"name":"nullifierHash","type":"uint256","internalType":"uint256"},{"name":"proof","type":"uint256[8]","internalType":"uint256[8]"}]}],"outputs":[],"stateMutability":"payable"},{"type":"function","name":"getNextPostId","inputs":[],"outputs":[{"name":"","type":"uint256","internalType":"uint256"}],"stateMutability":"view"},{"type":"function","name":"getPost","inputs":[{"name":"postId","type":"uint256","internalType":"uint256"}],"outputs":[{"name":"","type":"tuple","internalType":"struct Whistleblower.Post","components":[{"name":"id","type":"uint256","internalType":"uint256"},{"name":"author","type":"address","internalType":"address"},{"name":"content","type":"string","internalType":"string"},{"name":"timestamp","type":"uint256","internalType":"uint256"}]}],"stateMutability":"view"},{"type":"function","name":"nextPostId","inputs":[],"outputs":[{"name":"","type":"uint256","internalType":"uint256"}],"stateMutability":"view"},{"type":"function","name":"nextProofId","inputs":[{"name":"","type":"uint256","internalType":"uint256"}],"outputs":[{"name":"","type":"uint256","internalType":"uint256"}],"stateMutability":"view"},{"type":"function","name":"posts","inputs":[{"name":"","type":"uint256","internalType":"uint256"}],"outputs":[{"name":"id","type":"uint256","internalType":"uint256"},{"name":"author","type":"address","internalType":"address"},{"name":"content","type":"string","internalType":"string"},{"name":"timestamp","type":"uint256","internalType":"uint256"}],"stateMutability":"view"},{"type":"function","name":"proofs","inputs":[{"name":"","type":"uint256","internalType":"uint256"},{"name":"","type":"uint256","internalType":"uint256"}],"outputs":[{"name":"author","type":"address","internalType":"address"},{"name":"cid","type":"string","internalType":"string"},{"name":"timestamp","type":"uint256","internalType":"uint256"}],"stateMutability":"view"},{"type":"function","name":"verifyAndExecute","inputs":[{"name":"signal","type":"address","internalType":"address"},{"name":"root","type":"uint256","internalType":"uint256"},{"name":"nullifierHash","type":"uint256","internalType":"uint256"},{"name":"proof","type":"uint256[8]","internalType":"uint256[8]"}],"outputs":[],"stateMutability":"nonpayable"},{"type":"event","name":"PostCreated","inputs":[{"name":"id","type":"uint256","indexed":false,"internalType":"uint256"},{"name":"author","type":"address","indexed":false,"internalType":"address"},{"name":"content","type":"string","indexed":false,"internalType":"string"},{"name":"timestamp","type":"uint256","indexed":false,"internalType":"uint256"}],"anonymous":false},{"type":"event","name":"ProofAdded","inputs":[{"name":"postId","type":"uint256","indexed":false,"internalType":"uint256"},{"name":"author","type":"address","indexed":false,"internalType":"address"},{"name":"cid","type":"string","indexed":false,"internalType":"string"},{"name":"timestamp","type":"uint256","indexed":false,"internalType":"uint256"}],"anonymous":false},{"type":"event","name":"Verified","inputs":[{"name":"nullifierHash","type":"uint256","indexed":false,"internalType":"uint256"}],"anonymous":false},{"type":"error","name":"DuplicateNullifier","inputs":[{"name":"nullifierHash","type":"uint256","internalType":"uint256"}]}],"bytecode":{"object":"0x60e0604052600160c05234801561001557600080fd5b506040516112b13803806112b183398101604081905261003491610185565b6001600160a01b0383166080526040516100819061006f9061005a90859060200161020d565b60408051601f1981840301815291905261008d565b8260405160200161005a929190610229565b60a0525061024f915050565b60006008826040516020016100a2919061020d565b60408051601f198184030181529190528051602090910120901c92915050565b634e487b7160e01b600052604160045260246000fd5b60005b838110156100f35781810151838201526020016100db565b50506000910152565b600082601f83011261010d57600080fd5b81516001600160401b03811115610126576101266100c2565b604051601f8201601f19908116603f011681016001600160401b0381118282101715610154576101546100c2565b60405281815283820160200185101561016c57600080fd5b61017d8260208301602087016100d8565b949350505050565b60008060006060848603121561019a57600080fd5b83516001600160a01b03811681146101b157600080fd5b60208501519093506001600160401b038111156101cd57600080fd5b6101d9868287016100fc565b604086015190935090506001600160401b038111156101f757600080fd5b610203868287016100fc565b9150509250925092565b6000825161021f8184602087016100d8565b9190910192915050565b828152600082516102418160208501602087016100d8565b919091016020019392505050565b60805160a05160c05161101e61029360003960008181610634015261089a01526000818161069e01526108e8015260008181610600015261086a015261101e6000f3fe6080604052600436106100865760003560e01c80635ef77949116100595780635ef779491461012a578063c78b150f14610159578063d594f00e14610186578063e9b7055314610199578063f9383489146101b957600080fd5b80630b1e7f831461008b57806340731c24146100c45780634c6f58ab146100f15780635c09bd9814610106575b600080fd5b34801561009757600080fd5b506100ab6100a63660046109e7565b6101ce565b6040516100bb9493929190610a50565b60405180910390f35b3480156100d057600080fd5b506100e46100df3660046109e7565b610289565b6040516100bb9190610a8b565b6101046100ff366004610c78565b6103e0565b005b34801561011257600080fd5b5061011c60025481565b6040519081526020016100bb565b34801561013657600080fd5b5061014a610145366004610cf3565b6104c1565b6040516100bb93929190610d15565b34801561016557600080fd5b5061011c6101743660046109e7565b60036020526000908152604090205481565b610104610194366004610d49565b61057f565b3480156101a557600080fd5b506101046101b4366004610d7d565b610835565b3480156101c557600080fd5b5060025461011c565b60006020819052908152604090208054600182015460028301805492936001600160a01b039092169261020090610dcc565b80601f016020809104026020016040519081016040528092919081815260200182805461022c90610dcc565b80156102795780601f1061024e57610100808354040283529160200191610279565b820191906000526020600020905b81548152906001019060200180831161025c57829003601f168201915b5050505050908060030154905084565b6102bd60405180608001604052806000815260200160006001600160a01b0316815260200160608152602001600081525090565b60025482106103055760405162461bcd60e51b815260206004820152600f60248201526e125b9d985b1a59081c1bdcdd081251608a1b60448201526064015b60405180910390fd5b6000828152602081815260409182902082516080810184528154815260018201546001600160a01b031692810192909252600281018054929391929184019161034d90610dcc565b80601f016020809104026020016040519081016040528092919081815260200182805461037990610dcc565b80156103c65780601f1061039b576101008083540402835291602001916103c6565b820191906000526020600020905b8154815290600101906020018083116103a957829003601f168201915b505050505081526020016003820154815250509050919050565b6040805160808101825260028054808352336020808501918252848601898152426060870152600093845290839052949091208351815590516001820180546001600160a01b0319166001600160a01b0390921691909117905592519192919082019061044d9082610e55565b50606082015181600301559050507f285db98a4632176385795ddf0d2b67cef1a21f47eb2f5d06f786ab6b5147e2006002543385426040516104929493929190610a50565b60405180910390a16104a7600254838361057f565b600280549060006104b783610f14565b9190505550505050565b60016020818152600093845260408085209091529183529120805491810180546001600160a01b03909316926104f690610dcc565b80601f016020809104026020016040519081016040528092919081815260200182805461052290610dcc565b801561056f5780601f106105445761010080835404028352916020019161056f565b820191906000526020600020905b81548152906001019060200180831161055257829003601f168201915b5050505050908060020154905083565b6002548311156105c35760405162461bcd60e51b815260206004820152600f60248201526e125b9d985b1a59081c1bdcdd081251608a1b60448201526064016102fc565b60408082015160009081526004602052205460ff16156105fe578060400151604051633c7fd51360e11b81526004016102fc91815260200190565b7f00000000000000000000000000000000000000000000000000000000000000006001600160a01b0316633bc778e382602001517f00000000000000000000000000000000000000000000000000000000000000006106978560000151604051602001610683919060609190911b6bffffffffffffffffffffffff1916815260140190565b6040516020818303038152906040526109b2565b85604001517f000000000000000000000000000000000000000000000000000000000000000087606001516040518763ffffffff1660e01b81526004016106e396959493929190610f3b565b60006040518083038186803b1580156106fb57600080fd5b505afa15801561070f573d6000803e3d6000fd5b5050506040808301805160009081526004602052829020805460ff191660011790555190517ff786e7f77ede00a02a5464f8f0555798f42ba99a4a920ef2778db8d75e4656f7925061076391815260200190565b60405180910390a16040805160608101825233815260208082018581524283850152600087815260018084528582206003855286832054835290935293909320825181546001600160a01b0319166001600160a01b039091161781559251919291908201906107d29082610e55565b50604091820151600290910155517f4f5d31f2a865cdefe18214254a5e3d968b356c88a4c5470dbba0a3829019e56f90610813908590339086904290610a50565b60405180910390a160008381526003602052604081208054916104b783610f14565b60008281526004602052604090205460ff161561086857604051633c7fd51360e11b8152600481018390526024016102fc565b7f00000000000000000000000000000000000000000000000000000000000000006001600160a01b0316633bc778e3847f00000000000000000000000000000000000000000000000000000000000000006108e588604051602001610683919060609190911b6bffffffffffffffffffffffff1916815260140190565b867f0000000000000000000000000000000000000000000000000000000000000000876040518763ffffffff1660e01b815260040161092996959493929190610f94565b60006040518083038186803b15801561094157600080fd5b505afa158015610955573d6000803e3d6000fd5b50505060008381526004602052604090819020805460ff19166001179055517ff786e7f77ede00a02a5464f8f0555798f42ba99a4a920ef2778db8d75e4656f791506109a49084815260200190565b60405180910390a150505050565b60006008826040516020016109c79190610fcc565b60408051601f198184030181529190528051602090910120901c92915050565b6000602082840312156109f957600080fd5b5035919050565b60005b83811015610a1b578181015183820152602001610a03565b50506000910152565b60008151808452610a3c816020860160208601610a00565b601f01601f19169290920160200192915050565b8481526001600160a01b0384166020820152608060408201819052600090610a7a90830185610a24565b905082606083015295945050505050565b602081528151602082015260018060a01b0360208301511660408201526000604083015160806060840152610ac360a0840182610a24565b9050606084015160808401528091505092915050565b634e487b7160e01b600052604160045260246000fd5b6040516080810167ffffffffffffffff81118282101715610b1257610b12610ad9565b60405290565b604051610100810167ffffffffffffffff81118282101715610b1257610b12610ad9565b600082601f830112610b4d57600080fd5b813567ffffffffffffffff811115610b6757610b67610ad9565b604051601f8201601f19908116603f0116810167ffffffffffffffff81118282101715610b9657610b96610ad9565b604052818152838201602001851015610bae57600080fd5b816020850160208301376000918101602001919091529392505050565b80356001600160a01b0381168114610be257600080fd5b919050565b60006101608284031215610bfa57600080fd5b610c02610aef565b9050610c0d82610bcb565b81526020828101359082015260408083013590820152607f82018313610c3257600080fd5b610c3a610b18565b80610160840185811115610c4d57600080fd5b606085015b81811015610c6a578035845260209384019301610c52565b505060608301525092915050565b60008060006101a08486031215610c8e57600080fd5b833567ffffffffffffffff811115610ca557600080fd5b610cb186828701610b3c565b935050602084013567ffffffffffffffff811115610cce57600080fd5b610cda86828701610b3c565b925050610cea8560408601610be7565b90509250925092565b60008060408385031215610d0657600080fd5b50508035926020909101359150565b6001600160a01b0384168152606060208201819052600090610d3990830185610a24565b9050826040830152949350505050565b60008060006101a08486031215610d5f57600080fd5b83359250602084013567ffffffffffffffff811115610cce57600080fd5b6000806000806101608587031215610d9457600080fd5b610d9d85610bcb565b935060208501359250604085013591506101608501861015610dbe57600080fd5b509194909350909160600190565b600181811c90821680610de057607f821691505b602082108103610e0057634e487b7160e01b600052602260045260246000fd5b50919050565b601f821115610e5057806000526020600020601f840160051c81016020851015610e2d5750805b601f840160051c820191505b81811015610e4d5760008155600101610e39565b50505b505050565b815167ffffffffffffffff811115610e6f57610e6f610ad9565b610e8381610e7d8454610dcc565b84610e06565b6020601f821160018114610eb75760008315610e9f5750848201515b600019600385901b1c1916600184901b178455610e4d565b600084815260208120601f198516915b82811015610ee75787850151825560209485019460019092019101610ec7565b5084821015610f055786840151600019600387901b60f8161c191681555b50505050600190811b01905550565b600060018201610f3457634e487b7160e01b600052601160045260246000fd5b5060010190565b60006101a08201905087825286602083015285604083015284606083015283608083015260a082018360005b6008811015610f86578151835260209283019290910190600101610f67565b505050979650505050505050565b60006101a0820190508782528660208301528560408301528460608301528360808301526101008360a0840137979650505050505050565b60008251610fde818460208701610a00565b919091019291505056fea26469706673582212205de90e543c57cf8b14052a6879c5c863f2a08f9b8eb4e3ecc6834ca1f979692264736f6c634300081a0033","linkReferences":{}},"methodIdentifiers":{"addProof(uint256,string,(address,uint256,uint256,uint256[8]))":"d594f00e","createPost(string,string,(address,uint256,uint256,uint256[8]))":"4c6f58ab","getNextPostId()":"f9383489","getPost(uint256)":"40731c24","nextPostId()":"5c09bd98","nextProofId(uint256)":"c78b150f","posts(uint256)":"0b1e7f83","proofs(uint256,uint256)":"5ef77949","verifyAndExecute(address,uint256,uint256,uint256[8])":"e9b70553"},"id":0}